S01300004C43445F446973706C61792E7372656309
S113000071C0000090C000008EC000008CC00000D1
S11300108AC0000088C0000086C0000084C00000C0
S113002082C0000080C000007EC000007CC00000D0
S11300307AC0000078C0000076C0000074C00000E0
S113004072C0000070C000006EC000006CC00000F0
S11300506AC0000068C0000066C0000064C0000000
S113006062C0000060C000005EC000005CC0000010
S11300705AC0000058C0000056C0000054C0000020
S113008052C0000050C000004EC000004CC0000030
S11300904AC0000048C0000046C0000044C0000040
S11300A042C0000040C000003EC000003CC0000050
S11300B03AC0000038C0000036C0000034C0000060
S11300C032C0000030C000002EC000002CC0000070
S11300D02AC0000028C0000026C0000024C0000080
S11300E022C0000011241FBECFEFD1E2DEBFCDBF7E
S11300F000E00CBF1BE0A0E0B2E0E8EDFCE100E0B2
S11301000BBF02C007900D92AC3FB107D9F72DE0A9
S1130110ACEFBBE001C01D92AA39B207E1F70E941F
S1130120CB0D0C946A0E6CCF009719F480912A02BF
S11301300895FC0181810895EF92FF920F9381113C
S113014007C0E091FF0BF091000C82859385ECDFF2
S1130150E091FF0BF091000C95812381692F70E0F1
S1130160680F711D422F50E04617570718F0890F8A
S1130170858321C044855585BA01772741FF09C08D
S11301803091FE0B31111FC09217F8F4890F85834B
S113019012C03091FE0B311103C0921B890F2583CD
S11301A061707727EE24FF24E61AF70A082F4281AC
S11301B06181808155D7E091FF0BF091000C808123
S11301C0848380E003C081E001C081E00F91FF904F
S11301D0EF90089588D61092990DE091FF0BF0915D
S11301E0000C858590E021E0822781708093FE0BCE
S11301F00895E091FF0BF091000C8281948189179E
S113020008F4848383819581891708F48583848124
S1130210868385818783FBC50895E091FF0BF09168
S1130220000C9081891B86952BEB829F812D1124D4
S113023086958695869526E1829F900D1124892FB7
S11302408A5E0895AF92BF92CF92DF92EF920F939E
S11302501F93CF93DF93C82F8A3009F4A3C08D3046
S113026009F4A2C0893089F5C091FF0BD091000C2C
S11302708C81D3DFD82E8881D81609F497C08A855B
S11302809B8552DFE091FF0BF091000C04851585EE
S11302900170112711950195110925816181C22FE2
S11302A0D0E0A82FB0E0A60FB11DCA17DB071CF0E1
S11302B061E0620F681B4D2D84813ED6E091FF0BF7
S11302C0F091000CD48280E076C0E091FF0BF091B5
S11302D0000C8285938528DFD82FE091FF0BF091E5
S11302E0000C82819481891720F48F5F848380E0DD
S11302F062C040855185628573858C2FB2D08C0194
S1130300009709F455C0FC01C081C11101C0C2812C
S1130310E091FF0BF091000C2485358531FD0CC074
S1130320248130E0215031092C0F311D828190E06D
S11303308217930708F43EC0A285B3851296AD9048
S1130340BD90CD90DC901597658141812D2F30E0D3
S1130350862F90E0841B91098217930734F4EE24CE
S1130360EA94E40EE61AED0E01C0E12C6F5F6D1BFA
S113037023814281848107D1E091FF0BF091000C2D
S113038044815281242F30E02C0F311D852F90E0C1
S11303908217930718F4548380E00DC0C40FC483FC
S11303A080E009C080E007C080E005C080E003C0B1
S11303B080E001C081E0DF91CF911F910F91EF9018
S11303C0DF90CF90BF90AF900895CF93DF93DC017F
S11303D0E091FF0BF091000CC285D385009781F466
S11303E0A9E2B2E0B387A2878091330290913402EC
S11303F0918780878C91868780912A0287870DC098
S1130400938782871A968D919C911B9791878087F9
S11304108C91868711968C918787E091FF0BF091E0
S1130420000C57854181258130E0852F90E00197AC
S1130430840F911D281739073CF4450F415045831B
S11304408381841708F4858394818281981708F442
S1130450892F868385818783DAD4CE01DF91CF917A
S113046008950F931F93CF93DF93EA01209771F1BF
S1130470DA0112960881002309F455C010E0502FC8
S1130480412F952F9695242F30E0290F311DF90126
S1130490EE0FFF1F2E0F3F1FFD01E20FF31F208100
S11304A0821708F44CC03181381708F445C0E28142
S11304B08E0F821B0BC0490F591B952F11F0592F1A
S11304C0E0CF9981981791F1892FD9CFE82FF0E0E7
S11304D0DB0118968D919C9119978E179F0748F10F
S11304E016960D90BC91A02D8C91811105C004E04D
S11304F010E020E030E004C002E010E020E030E052
S1130500EB014A815B816C817D81400F511F621F29
S1130510731FE49FC001E59F900DF49F900D11247B
S11305208A0F9B1F0FC080E090E00CC080E090E039
S113053009C080E090E006C09111BDCFC2CF9111F7
S1130540BECFBFCFDF91CF911F910F910895E0915E
S1130550FF0BF091000C309781F062857385611573
S1130560710569F0408551857CDFFC01009749F0F5
S11305708081811107C08281089588E0089588E010
S1130580089580E008953F924F925F926F927F9218
S11305908F929F92AF92BF92CF92DF92EF92FF928F
S11305A00F931F93CF93DF93482E562EF42E322EA3
S11305B0F80180818111B2C08280912C2381C22FE5
S11305C0D0E0209709F4AEC08114910409F4AAC0C4
S11305D0811147C03F0184E0680E711C1181012F15
S11305E0007C1F73A114B104C104D10409F51930AE
S11305F070F4189D9001199D300D1124295F3F4F0F
S113060036952795369527953695279518C0812FC9
S113061090E00796969587959695879596958795F4
S1130620889E9001899E300D989E300D112407C03C
S113063030E040E050E0C601B5010E942F0E1032B8
S113064008F01FE1003489F5193078F5E091FF0BCB
S1130650F091000C848580FD02C0106426C0106CEB
S113066024C03F0182E0680E711CE091FF0BF09101
S1130670000C848580FF02C010E801C010E0A114C2
S1130680B104C104D10451F49401295F3F4F36955C
S11306902795369527953695279507C030E040E095
S11306A050E0C601B5010E942F0EE091FF0BF091BE
S11306B0000C8485958599230CF41062EE2071F06A
S11306C05E0C8E2D90E0C81BD90B289FA001299F9A
S11306D0500D389F500D1124640E751E442D50E0AA
S11306E041505109840E951E21978F2D90E0632D62
S11306F070E01092990DC50DD11D6C177D0708F49B
S1130700EB01A4018815990508F4AC01C12E790107
S113071083012C2F652D842D30D504C0882E912C77
S113072021814DCFDF91CF911F910F91FF90EF90D9
S1130730DF90CF90BF90AF909F908F907F906F90FD
S11307405F904F903F9008959F92AF92BF92CF9247
S1130750DF92EF92FF920F931F93CF93DF93EC01FD
S11307600C811D81D8018C91882309F441C1A09189
S1130770FF0BB091000C1C968D919C911D979C01D0
S1130780332783FF0CC0F8018F0181918032E1F39C
S11307908B7F8930C9F38C9114968C930DC0C90159
S11307A08C709927049729F0207333272032310560
S11307B019F48C9114968C93198308831B830A83F0
S11307C01F821E82F8018081882309F4B2C08A3016
S11307D009F4B4C0E12CF12C21E0C12CB12C912CF2
S11307E0A12CD12C04C08A3009F4ACC02D2D8D303D
S11307F081F4E091FF0BF091000C848595858C7059
S11308009927892B49F5222309F49CC0808184838C
S113081087C08930F1F4E091FF0BF091000C8485DE
S113082095858C709927892BC9F4EA80FB80CE804A
S1130830BF8084818C0DF1DC90E0E091FF0BF0919E
S1130840000C2481821B91092E813F81821B930B12
S11308500CC0803241F403C080E201C080E2EA802F
S1130860FB80CE80BF8073DE90E0E091FF0BF091BF
S1130870000C6281262F30E04081241B3109A9013C
S11308804F5F5F4F8417950728F05F834E830F5F98
S11308901F4F58C02485358531FF17C074814E81A0
S11308A05F81470F511D2C7033272830310521F407
S11308B09C012150310902C0292D3A2D420F531FAA
S11308C070E06417750730F53DC04E815F8141507B
S11308D051097481470F511D480F591F70E0641767
S11308E07507C0F48C2D9B2DE114F10459F1207C83
S11308F033272034310531F5FB82EA829F838E83CE
S1130900892B21F087010F5F1F4F01C087010F5F03
S11309101F4F18C02E813F81820F931F9F838E83A8
S11309201B830A830F5F1F4FD8018C9181115BCF0A
S113093009C0E12CF12CC12CB12C04C0E12CF12C08
S1130940C12CB12C1D830C83E881F981808188231B
S113095009F450C0D8018C9181110CC0A091FF0BF7
S1130960B091000C1C968D919C911D978C709927C9
S11309700C9789F4AA81BB818C91803211F0893063
S113098051F4EA17FB0739F0E114F10421F0FB827A
S1130990EA82CE82BF824C815D81FA0120818091FE
S11309A0FF0B9091000CDC011C963C9133239CF4CA
S11309B0222341F12A3099F0319604C0222311F107
S11309C02A3069F0AF01FD83EC832191DC011C9690
S11309D03C9133239CF3222379F02D3079F0295074
S11309E0223070F4DA011196BD83AC8383E00BC02E
S11309F080E009C080E007C081E005C082E003C058
S1130A0083E001C081E0DF91CF911F910F91FF90AE
S1130A10EF90DF90CF90BF90AF909F9008958F920A
S1130A209F92BF92CF92DF92EF92FF920F931F9308
S1130A30CF93DF93CDB7DEB728970FB6F894DEBF18
S1130A400FBECDBF9E838D83892B09F4CEC1C2DB3B
S1130A50E091FF0BF091000C8285938565DBC82E35
S1130A60E091FF0BF091000C818113811F5F181B33
S1130A702485358533232CF491E020FD90E0B92EB4
S1130A8001C0B12C9091FE0B992319F01C1508F4A8
S1130A90ACC1A901552725FF83C004818D809E80A8
S1130AA0E12CF12CCE0101964FDE823030F48130FE
S1130AB081F48FEFE81AF80A0CC0833019F48FEF31
S1130AC0E81AF80AE091FF0BF091000C808184830E
S1130AD0E9CF9E828D82E091FF0BF091000C04839C
S1130AE08485958580739927C097B9F441814150D5
S1130AF04C0DCE9C9001CF9C300D1124812F90E0A1
S1130B002817390710F0458353C0812FCE9C8019D4
S1130B1011248695480F45834BC02C2D30E0812E3F
S1130B20912CE29EC001E39E900DF29E900D112443
S1130B308816990660F5C4010197B9010E941C0E3C
S1130B404181480F45838091FE0B882361F0812FFA
S1130B506C2D0E94FC0DE81AF1084C0D4583E1143C
S1130B60F10459F425C0C4010197820F931FB90100
S1130B700E94080EE61AF70AF2CFCE010196E4DDD0
S1130B8081E0E81AF108E114F104B9F711C081E039
S1130B90E81AF1088381CE9C80191124858308C04A
S1130BA0407355274031510519F481508C0D8583CC
S1130BB0CE010196C9DDD82EE091FF0BF091000C17
S1130BC08485958592FF10C025812C1568F0B1109D
S1130BD00BC08170992700271127081B190B2C19AA
S1130BE0428161818081A8D1DD2009F4B1C0EE2465
S1130BF0E394F12C8C2C912CE091FF0BF091000CE0
S1130C0024853585D901BB27C9018C7099278C307F
S1130C109105C1F48F8198851081428150E0411B78
S1130C205109BA016F5F7F4F8617970748F4B701E0
S1130C30681B790B460F571FCA0196958795180FA5
S1130C40148313C0089789F48F8198857281608119
S1130C50472F50E04F5F5F4F461B5109841795079C
S1130C6018F461E0670F681B648334FF1FC044817C
S1130C7080818417D8F4B11019C0A170BB27002754
S1130C8011270A1B1B0B95812381921708F4292F26
S1130C9041506181A92FB0E0F401E60FF11DAE17B8
S1130CA0BF071CF061E0690F6C1946D1E981FA8134
S1130CB08081E091FF0BF091000C248535852C7028
S1130CC03327232B29F0982F9B7F993009F480E256
S1130CD0B9DA89819A812B813C818217930721F0AB
S1130CE001969A838983E2CFE091FF0BF091000C87
S1130CF02485358535FF1EC0848142814817D0F094
S1130D00B11018C02170332700271127021B130BC1
S1130D1095812381921708F4292F6181A92FB0E0CE
S1130D20F401E60FF11DAE17BF071CF061E0690F77
S1130D306C1902D183E0D81204C08C2DFDD9811125
S1130D403AC0CE01019600DDD82E811155CF33C0B3
S1130D50E091FF0BF091000C848595859C0122277E
S1130D603073232B41F1B11026C08C01017011277F
S1130D7011950195110935812381321708F4232F28
S1130D8095FF02C0428102C0448141505181A32F8A
S1130D90B0E06C2D70E0650F711DA617B70724F045
S1130DA03F5F632F6C1901C0652F94FF02C08081DF
S1130DB001C08481C1D0E091FF0BF091000C8485C7
S1130DC0958593FF11C035812381321768F4B110E2
S1130DD00BC08170992700271127081B190B61E0AC
S1130DE0630F42818081A8D004DA28960FB6F89464
S1130DF0DEBF0FBECDBFDF91CF911F910F91FF904A
S1130E00EF90DF90CF90BF909F908F900895E091E6
S1130E10FF0BF091000C148A0895E091FF0BF09100
S1130E20000C1082E091FF0BF091000C1182E09114
S1130E30FF0BF091000C93E892839FE99383168251
S1130E40178214828230E0F497E095831586148625
S1130E50A9E2B2E0B387A287209133023091340231
S1130E60318720879C91968790912A0297878111D8
S1130E7012C0118A108A8FEF9FEF938B828B0BC065
S1130E8082859385892B21F480912A02815002C0A6
S1130E90878581508583BBCF0895FF920F931F935D
S1130EA0CF93DF93E2D5F82E811116C0C1E0DCE0C8
S1130EB00AE61CE0D093000CC093FF0B80E0ADDF8A
S1130EC06596C017D107B1F710926A0C21E03CE097
S1130ED03093000C2093FF0B8F2DDF91CF911F9146
S1130EE00F91FF9008958091FF0B9091000C892B36
S1130EF019F4D3DF81111FC080916A0C853048F04A
S1130F0084E080936A0C85E59CE09093000C8093C8
S1130F10FF0BE091FF0BF091000C82859385892BE8
S1130F2049F4BBDF811107C08091FF0B9091000C45
S1130F30892B09F06CCF08959F92AF92BF92CF9204
S1130F40DF92EF92FF920F931F93CF93DF93E80109
S1130F501092990DD82E83E88D1520F40F2EF3E806
S1130F60DF2EF02DF62E8FE9861720F40F2EFFE9E1
S1130F70FF2EF02DEF2CF21608F4E22E2FE92E1599
S1130F8020F40F2EFFE9EF2EF02D1D2DD41608F4BA
S1130F90142F143808F013E82E2D412F6F2D8D2DAA
S1130FA09DD4CE0101978E3F9F4F18F4EF14E8F4BF
S1130FB04BC0CD2B29F0C091950DD091960D04C056
S1130FC0C091970DD091980DEF1408F43DC01D19F0
S1130FD0012FCE01AAD48FEF800F002311F0082F28
S1130FE0F8CFF394EF14A0F72FC0AD2E0C2FED2DF6
S1130FF0E770F0E0EF5DFD4FC080BD2CF0FC02C057
S1131000D02F01C0DA2D9C2C1D15D8F0CB2D892DA5
S11310108D2329F08091950D9091960D04C08091B7
S1131020970D9091980D81D4969441F4EC2FF0E0B3
S11310303196E770F078EF5DFD4F9080CF5F1C171D
S113104030F7F394EF14D0F6DF91CF911F910F9105
S1131050FF90EF90DF90CF90BF90AF909F90089556
S11310607F928F929F92AF92BF92CF92DF92EF9234
S1131070FF920F931F93CF93DF931092990D982EA5
S113108083E8891520F40F2EF3E89F2EF02DA62E69
S11310908FE9861720F40F2EFFE9AF2EF02D8A2C4E
S11310A0A21608F4822E8FE9881520F40F2EFFE98A
S11310B08F2EF02DB92C941608F4B42E83E88B15DA
S11310C020F40F2EF3E8BF2EF02D802F90E0E82DB2
S11310D0F0E0EA19F109E817F9073CF48701282D33
S11310E04B2D6A2D892D28DF3AC0782C701A8A146A
S11310F0B0F1A71450F002C0A71468F08701282D9E
S11311004B2D6A2D892D18DF2AC00F2EFDE6CF2E18
S1131110FCE0DF2EF02D602F6A0D892D02D40FD450
S1131120B914C8F0192DE6010FD4899399931F5F60
S1131130B116D0F70AC089919991F7D31F5FB11600
S1131140D0F7A3948A14C0F60AC06A2D892DE9D376
S1131150192DE601F0CF6A2D892DE3D3F2CFDF916B
S1131160CF911F910F91FF90EF90DF90CF90BF90A0
S1131170AF909F908F907F9008952F923F924F92BF
S11311805F926F927F928F929F92AF92BF92CF9213
S1131190DF92EF92FF920F931F93CF93DF93CDB71C
S11311A0DEB76D970FB6F894DEBF0FBECDBF180142
S11311B00115110509F4F8C1E114F10409F4F4C1AD
S11311C00C2D0F7169F00930D0F59FEF900F92301C
S11311D040F0043009F4C7C1083009F0E5C1C3C1C7
S11311E001E098E0901B9D83E1E0F0E0002E02C056
S11311F0EE0FFF1F0A94E2F7DD24DA94DE0E0130CD
S113120011F0C6FE2EC0CC206CF03091950D3C87B9
S11312109090960D5091970D5A879091980D9B87B9
S11312201C2D24C0A091970DAC879090980DB0917F
S1131230950DBA87E091960DEB871C2D17C09C2D58
S11312409D71903129F0083119F00F3109F0ACC1CA
S11312501C2D1F7BD12C1D821A861B861C86912C6B
S113126005C01C2D1A861B861C86912C8E878438FB
S113127010F0F3E8FE87562E3FE9361720F40F2EC0
S1131280FFE95F2EF02D852D521608F4822F8E83F0
S1131290803A10F05FE95E837E84741608F4742E3D
S11312A083E8871520F40F2EF3E87F2EF02DC5FA7E
S11312B0662460F8C5FC05C02E81472D652D8E85FA
S11312C00DD39E81951508F46FC181E090E0002E46
S11312D002C0880F991F0A94E2F7DC011197BA8BB8
S11312E0A98B812C19821A821B821C82A12CBD819C
S11312F0B9871074B12E412CEFEFEF8B9D869701C7
S113130040E050E02B8B3C8B4D8B5E8BCD2CF02E34
S1131310662031F02E81472D652D8E85DFD2812CFC
S11313203E85731608F409C1E32ED98400E010E069
S113133089819A81AC01420D531D58874F83588B84
S11313404F87B7E0BF1530F4E8E0FE124CC0BB2075
S113135009F418C1FD81DF120AC0F101E00FF11F89
S113136029813A81E20FF31FA0800F5F1F4F8A2D5E
S113137090E00D2C02C0959587950A94E2F79C2C79
S11313809822DD2011F0DF1801C0D98431E0F31276
S113139008C0992009F48CC04C85488F5D85598F0D
S11313A08BC0BB20A9F090949C20AFEFA99DC001F5
S11313B0112469897A892CD4962E611085C0462F10
S11313C06A857B858C859D85C3D1998F888FA0C0C4
S11313D0E92DF0E0EE0FFF1FEB58F24F2081318131
S11313E0398F288F69C0D8011196EF81F885E00FF5
S11313F0F11F608170E080E090E03FE03F1508F06D
S113140048C02227362F472F582F2A8F3B8F4C8FC7
S11314105D8FA8014E5F5F4F598F488F9D01220D4C
S1131420331DA981BA81A20FB31F8C912A8D3B8DE4
S11314304C8D5D8D280F311D411D511DCA01B9010F
S113144030E13F1520F54427562F672F782FD80118
S11314501396288D398D8F859889280F391FF901A6
S11314602081CB01BA01620F711D811D911DF8E12C
S1131470FF1508F096C0662031F02F853889A20F39
S1131480B31F9C9001C09F88D80114968BC0A88D6F
S1131490B98D30E1F31639F08D01942C4F2D45D1DF
S11314A0998F888F09C0798F688F8D01942C04C01F
S11314B04A85488F5B85598F662051F1B11008C069
S11314C088E18F15E0F404C09C85988FAD85A98FC1
S11314D0992051F1BFEF9B16D9F02E81472D652D30
S11314E08E2DFCD12CD230D28A879B87492D682F30
S11314F0792F888D998D2CD1998F888F0BC08091ED
S1131500970D9091980DE88DF98DE817F90779F00A
S1131510882029F02E81472D652D8E2DDFD1888DD1
S1131520998D03D2842C05C08824839402C0882416
S11315308394E3947E1408F004CF29813A814B818B
S11315405C818B899C89AD89BE89280F391F4A1F0C
S11315505B1F29833A834B835C8353949E81951547
S113156008F0D6CE21C098E0901B9D83E1E0F0E026
S1131570002E02C0EE0FFF1F0A94E2F7DD24DA9476
S1131580DE0E3FCEF101E00FF11FA981BA81EA0F0F
S1131590FB1F608170E080E090E00F5F1F4F942C90
S11315A07DCF942C8D017ACF6D960FB6F894DEBF63
S11315B00FBECDBFDF91CF911F910F91FF90EF90A0
S11315C0DF90CF90BF90AF909F908F907F906F905F
S11315D05F904F903F902F9008950F931F93FA01BF
S11315E0309709F49FC0283081F5362F307E262F9E
S11315F0220F220F220F207E6295660F660F607CF9
S1131600932F969596959695832F829586958770B8
S1131610892B382B3083922F969596959695822F09
S1131620829586958770892B282B2183962F9695F2
S11316309695862F82958F70892B862B6295669559
S113164066956370682B62836DC0203179F5472FEE
S1131650487F40838B019C01689412F83695279546
S1131660179507951694D1F7502F5C7F5183660F19
S1131670660F660F6283461305C0087F401309C0D6
S1131680418307C0852F8295869586958370582B54
S11316905183842F829586958770482B4083862FAB
S11316A0829586958770682B62833CC0223189F5C8
S11316B08B019C010F2EFAE0369527951795079517
S11316C0FA95D1F7F02D402F4C7F8B019C01689443
S11316D013F836952795179507951694D1F7202F6B
S11316E02C7F660F660F042F0295069506950370EE
S11316F0402B4083022F0295069506950370202BFC
S11317002183862F8295869586958370682B6283C4
S113171009C0283120F080837183628303C0108262
S1131720118212821F910F910895CF93DF9300D0FD
S1131730CDB7DEB7242FAE014F5F5F4F4EDFCE0132
S1131740019627D10F900F900F90DF91CF910895BC
S11317502F923F924F925F926F927F928F929F92BD
S1131760AF92BF92CF92DF92EF92FF920F931F93AB
S1131770CF93DF9300D000D0CDB7DEB78C017E834A
S11317806D83442309F466C04F3F09F466C0842E78
S1131790912CA12CB12C442E4094512C612C712CF1
S11317A0DB01A07EB770A30192018AD26B017C0198
S11317B0D801A07EB770A501940182D26C0D7D1D65
S11317C08E1D9F1DC12CD12C7601CA94A7019601B0
S11317D046D2190180EE282287E03822AD81BE81ED
S11317E0AA27B87FA30192016BD269837A838B8382
S11317F09C83D801AA27B87FA501940161D22981CD
S11318003A814B815C81620F731F841F951FA7016E
S1131810960125D22227387F222A332AAD81BE8120
S1131820AF71BB27A30192014BD22B013C01D8011C
S1131830AF71BB27A501940143D2640D751D861DAC
S1131840971DA70196010BD22F713327C101822B5B
S1131850932B03C08D819E8100C026960FB6F89409
S1131860DEBF0FBECDBFDF91CF911F910F91FF90CF
S1131870EF90DF90CF90BF90AF909F908F907F902C
S11318806F905F904F903F902F90089540ED57E0F8
S11318901AC05093FD0B4093FC0B2091FC0B30912C
S11318A0FD0B232B81F02091FC0B3091FD0B21507B
S11318B031093093FD0B2093FC0B2091FC0B3091EC
S11318C0FD0B232B81F7815020F70895682F81E0C9
S11318D02AC10895682F80E026C108950F931F93AD
S11318E0CF93DF93082FD62F142FC22F8AE2F2DF73
S11318F080E0ECDF802FEADF80E0E8DF812FE6DFA5
S11319008BE2E8DF80E0E2DF8D2FE0DF80E0DEDFE6
S11319108C2FDCDF8CE2DEDFDF91CF911F910F9102
S113192008952FE943E8DACF0895CF93C82F692F9C
S113193081E0F9D06C2F81E0F6D0CF9108958EE24A
S1131940C9DF81E0F1C008950F931F93CF93DF9314
S113195081E0EAD0887F082F10E0102F002781E073
S1131960E3D08C7FC82FD0E0CC0FDD1FCC0FDD1F60
S1131970CC0FDD1FC02BD12B81E0D6D08695869568
S113198086959E01282BC901DF91CF911F910F915C
S11319900895FC01009791F02081287F81818C7F3C
S11319A090E0880F991F880F991F880F991F922B19
S11319B02281269526952695822B089580E090E035
S11319C00895CF92DF92EF92FF920F931F93CF93DC
S11319D0DF9300D0CDB7DEB76115710549F09B01E7
S11319E0280F391F2131310518F44115510521F40F
S11319F081E08093990D2AC01092990D7B0121E01A
S1131A00E21AF1088A010E5F1F4F880F991FFC012B
S1131A10EB58F24F6F01F801329780818983319638
S1131A2080818A83F80180818B83CE010196B1DFA6
S1131A30F601819391936F01F1E0EF1AF1080D5FC4
S1131A401F4F2FEFE216F20631F780E00F900F9050
S1131A500F90DF91CF911F910F91FF90EF90DF9046
S1131A60CF90089589E236CF0895EF92FF920F93B5
S1131A701F93CF93DF931092990D58D08091990DB5
S1131A80811149C01092960D1092950D8FEF9FEF22
S1131A909093980D8093970D45E357E060E170E0D3
S1131AA080E090E08EDF86E9F1DEC2E0D2E00F2E26
S1131AB0F3E2EF2EF2E0FF2EF02D8E01FE013297BD
S1131AC08081811103C0888105DF02C08881FEDE28
S1131AD0F801319780818111D9DE2396CE15DF0577
S1131AE061F70091970D1091980D2FE943E860E09C
S1131AF080E0F4DEC0E0D0E0C80117DF2196C038F2
S1131B0082E5D807C9F7AEDF81E09091990D911174
S1131B1003C080E001C081E0DF91CF911F910F915C
S1131B20FF90EF900895089580E00895DF92EF927A
S1131B30FF920F931F93CF93DF930A9A089A779893
S1131B40179AE6E9FBE0D12C18C08F010F5F1F4FF5
S1131B50E181EF77EE2E46D0EE2071F0E801FD2C06
S1131B60899145D0F394FE10FBCFEA94EE2DF0E07A
S1131B703196E00FF11F01C0F80180818111E5CF9A
S1131B80DF91CF911F910F91FF90EF90DF90089517
S1131B900A9A129A0895FCDF18D0279A2F9AC6DF62
S1131BA080EE9BE00E940F0585E697E00E94E50128
S1131BB08FEE9BE00E940F0589E292E00E94E5010E
S1131BC080EE9BE00E940F05FFCF84B1876084B94B
S1131BD02B9A81E58CBD08958EBD0DB407FEFDCF13
S1131BE08EB5089510981098F7DF129A0895109AF8
S1131BF01098F2DF129A0895991B79E004C0991F96
S1131C00961708F0961B881F7A95C9F78095089552
S1131C10AA1BBB1B51E107C0AA1FBB1FA617B7070E
S1131C2010F0A61BB70B881F991F5A95A9F780952A
S1131C309095BC01CD01089597FB072E16F40094EE
S1131C4006D077FD08D0E4DF07FC05D03EF490957C
S1131C5081959F4F0895709561957F4F0895A1E2F6
S1131C601A2EAA1BBB1BFD010DC0AA1FBB1FEE1F12
S1131C70FF1FA217B307E407F50720F0A21BB30B5D
S1131C80E40BF50B661F771F881F991F1A9469F7D9
S1131C9060957095809590959B01AC01BD01CF0135
S1131CA00895A29FB001B39FC001A39F700D811D31
S1131CB01124911DB29F700D811D1124911D089551
S1131CC0F0DFA59F900DB49F900DA49F800D911DF2
S10B1CD011240895F894FFCFDC
S1131CD80078000078010078110000260100040053
S1131CE8003601008800002000003A010055000079
S1131CF82880402010080402010608080000003566
S1131D080280000000060800000000000000000631
S1131D1808000000000000000006080000000000A1
S1131D28000000060800000000000000000608008B
S1131D380000000000000006080000000000000089
S1131D48000608000000000000000006080000006B
S1131D580000000000060800000000000000000663
S1131D680800000000000000000608000000000051
S1131D78000000060800000000000000000608003B
S1131D880000000000000006080000000000000039
S1131D98000608000000000000000006080000001B
S1131DA80000000000060800000000000000000613
S1131DB80800000000000000000608000000000001
S1131DC800000006080000000000000000060800EB
S1131DD800000000000000060800000000000000E9
S1131DE800060800000000000000000608000000CB
S1131DF800000000000608000000000000000006C3
S1131E0808000000000000000006080000000000B0
S1131E18000000060800000000000000000608009A
S1131E280000000000000006080000000000000098
S1131E38000608000000000000000006080000007A
S1131E480000000000060800000000000000000672
S1131E580820202020200020000608505000000000
S1131E680000000608000050F850F850000608204A
S1131E7878A07028F020000608E0A8F02078A83898
S1131E8800060820505060A890680006082020002A
S1131E980000000000060810202020202010000662
S1131EA808402020202020400006080020A8707048
S1131EB8A82000060800002020F8202000060800BA
S1131EC80000000020204006080000000070000008
S1131ED80006080000000000004000060808101072
S1131EE820404080000608708898A8C888700006BA
S1131EF808206020202020700006087088081060E0
S1131F0888F80006087088087008887000060810A9
S1131F18305090F81038000608F880F008088870E7
S1131F28000608304080F0888870000608F8081019
S1131F382020404000060870888870888870000651
S1131F4808708888780810600006080000002000DF
S1131F5800200006080000002000002040060800B9
S1131F6800102040201000060800000070007000D7
S1131F780006080000402010204000060870880869
S1131F88102000200006087088B8A8B880700006E1
S1131F980870888888F88888000608F08888F08897
S1131FA888F000060870C8808080C870000608F0B1
S1131FB89888888898F0000608F88080F08080F86F
S1131FC8000608F88080F080808000060870C880C9
S1131FD8B888C878000608888888F8888888000639
S1131FE80870202020202070000608180808080817
S1131FF888700006088890A0C0A090880006088011
S11320088080808088F800060888D8A8888888880E
S113201800060888C8A898888888000608708888F0
S113202888888870000608F08888F0808080000618
S11320380870888888A89068000608F08888F0A046
S11320489088000608708880700888F0000608F8F0
S11320582020202020200006088888888888887006
S1132068000608888888888850200006088888A878
S1132078A8A8A85000060888885020508888000618
S11320880888885070202020000608F8081020408E
S113209888F8000608302020202020300006088018
S11320A840402010100800060860202020202060EE
S11320B80006082050000000000000060800000088
S11320C800000000FF060840200000000000000691
S11320D8080000700878C8780006088080B0C888AE
S11320E8C8B0000608000070C880C8700006080858
S11320F808689888986800060800007088F8807056
S113210800060818207820202020000608000078FF
S1132118888878087006088080B0D888888800067F
S1132128082000602020207000060820006020207D
S113213820A0400608808090A0C0A09000060860F7
S11321482020202020700006080000D0A8A8A88815
S11321580006080000B0D8888888000608000070C7
S1132168888888700006080000B0C888C8B080064F
S113217808000068988898680806080000B0484075
S113218840E0000608000078807008F000060800A7
S11321982078202028100006080000888888D8683D
S11321A80006080000888888502000060800008877
S11321B888A8A850000608000088D870D8880006A7
S11321C80800008888885020C006080000F81020FD
S11321D848F8000608102020402020100006082097
S11321E82020002020200006084020201020204025
S11321F8000608000068B0000000000608F8888897
S1132208888888F800000000FF0000FFFF0000FF36
S11322180000FFFF0000FFFF00FFFFFFFFC0C0C07A
S1132228B0B0B0A0A0A08080806060600080000092
S11322380080FF8000060909000000710760009112
S11322480B050900000000000000000002090080DE
S113225880808080008000040900A0A000000000A5
S11322680000060900000050F850F8500006090064
S11322782078A07028F02000060900E0A8F0207853
S1132288A8380006090020505060A8906800020988
S11322980080800000000000000309004080808066
S11322A880808040030900804040404040408006D0
S11322B809000020A87070A820000609000000206A
S11322C820F820200003090000000000004040809E
S11322D804090000000000E00000000209000000FA
S11322E8000000008000060900081010204040800B
S11322F800060900708898A8C8887000050900209D
S113230860202020202000060900708808106080C2
S1132318F80006090070880870088870000609002B
S113232810305090F8101000060900F880F0880862
S1132338887000060900304080F08888700006091B
S113234800F80810202040400006090070888870B2
S11323588888700006090070888878081060000270
S1132368090000000080000080000309000000004C
S11323784000004080040900000020408040200004
S1132388040900000000E000E00000040900000067
S11323988040204080000609007088081020002032
S11323A8000609007088B8A8B88070000609007093
S11323B8888888F8888800060900F08888F0888862
S11323C8F00006090070C8808080C8700006090003
S11323D8F09888888898F000060900F88080F080D2
S11323E880F800060900F88080F0808080000609E3
S11323F80070C880B888C87800060900888888F8FA
S11324088888880002090080808080808080000598
S1132418090010101010109060000609008890A0A0
S1132428C0A0908800050900808080808080F0002A
S113243806090088D8A8A88888880006090088C8DA
S1132448A898888888000609007088888888887011
S113245800060900F08888F0808080000609007072
S1132468888888A8906800060900F08888F0A090F9
S11324788800060900708880700888F00006090042
S1132488F8202020202020000609008888888888D1
S11324988870000609008888888888502000060902
S11324A8008888A8A8A8A850000609008888502091
S11324B8508888000609008888507020202000066B
S11324C80900F80810204080F800030900C0808043
S11324D880808080C00609008040402010100800D9
S11324E8030900C0404040404040C004090040A0E7
S11324F800000000000006090000000000000000C1
S1132508FC030900804000000000000005090000E9
S113251800E010F090F0000609008080B0C888C878
S1132528B000050900000060908090600006090072
S1132538080868988898680006090000007088F8F8
S11325488070000409002040E04040404000060933
S11325580000007888887808700609008080B0D860
S113256888888800020900800080808080800003B9
S113257809004000404040404080050900808090A8
S1132588A0C0A09000020900808080808080800024
S11325980609000000D0A8A8A8A8000509000000A2
S11325A8A0D0909090000609000000708888887078
S11325B8000609000000B0C888C8B08006090000F9
S11325C8006898889868080509000000B0C08080F1
S11325D88000050900000070806010E00004090014
S11325E80040E04040402000060900000088888838
S11325F8D868000609000000888888502000060969
S11326080000008888A8A85000060900000088D89F
S113261870D8880006090000008888885020C00601
S113262809000000F0102040F00004090020404098
S11326388040402000020900808080008080800063
S11326480409008040402040408000060900000042
S113265868B000000000060900F88888888888F8AF
S1132668000120207F00019EB903FF8357B30400B3
S1132678000606B60125C0021010C10141C201229C
S1132688C5020048E00F0F1F1C0C0F084898370AB2
S11326981304110D00E10F0F322E0B0D054775378A
S11326A80610032420003601483A0155119E299E3C
S11326B80A5573696E6720535953464F4E54005553
S10F26C873696E6720617269656C3900EB
S9030000FC
